{
  "contractName": "InfoStudent",
  "abi": [
    {
      "inputs": [],
      "payable": false,
      "stateMutability": "nonpayable",
      "type": "constructor"
    },
    {
      "constant": true,
      "inputs": [],
      "name": "studentCount",
      "outputs": [
        {
          "internalType": "uint256",
          "name": "",
          "type": "uint256"
        }
      ],
      "payable": false,
      "stateMutability": "view",
      "type": "function"
    },
    {
      "constant": true,
      "inputs": [
        {
          "internalType": "uint256",
          "name": "",
          "type": "uint256"
        }
      ],
      "name": "students",
      "outputs": [
        {
          "internalType": "string",
          "name": "rollno",
          "type": "string"
        },
        {
          "internalType": "string",
          "name": "name",
          "type": "string"
        },
        {
          "internalType": "uint256",
          "name": "age",
          "type": "uint256"
        },
        {
          "internalType": "uint256",
          "name": "cgpa",
          "type": "uint256"
        }
      ],
      "payable": false,
      "stateMutability": "view",
      "type": "function"
    },
    {
      "constant": false,
      "inputs": [
        {
          "internalType": "string",
          "name": "_rollno",
          "type": "string"
        },
        {
          "internalType": "string",
          "name": "_name",
          "type": "string"
        },
        {
          "internalType": "uint256",
          "name": "_age",
          "type": "uint256"
        },
        {
          "internalType": "uint256",
          "name": "_cgpa",
          "type": "uint256"
        }
      ],
      "name": "createStudent",
      "outputs": [],
      "payable": false,
      "stateMutability": "nonpayable",
      "type": "function"
    }
  ],
  "bytecode": "0x60806040526000805534801561001457600080fd5b506100706040518060400160405280600981526020016831384249543031333160b81b8152506040518060400160405280600e81526020016d4b53484954494a20444859414e4960901b8152506015600961017c60201b60201c565b6100ca60405180604001604052806009815260200168189c2121a49819189b60b91b8152506040518060400160405280600d81526020016c0a492a69082849040a6929c8e9609b1b8152506016600861017c60201b60201c565b6101216040518060400160405280600981526020016831374243453030303160b81b8152506040518060400160405280600a81526020016912d25490538814d3d3d160b21b8152506017600661017c60201b60201c565b6101776040518060400160405280600981526020016831384249543032333160b81b815250604051806040016040528060098152602001680a4829a40a6929c8e960bb1b8152506013600a61017c60201b60201c565b610299565b6000805460019081018083556040805160808101825288815260208082018990528183018890526060820187905292855292825290922081518051929391926101c892849201906101fe565b5060208281015180516101e192600185019201906101fe565b506040820151600282015560609091015160039091015550505050565b828054600181600116156101000203166002900490600052602060002090601f016020900481019282601f1061023f57805160ff191683800117855561026c565b8280016001018555821561026c579182015b8281111561026c578251825591602001919060010190610251565b5061027892915061027c565b5090565b61029691905b808211156102785760008155600101610282565b90565b61053b806102a86000396000f3fe608060405234801561001057600080fd5b50600436106100415760003560e01c806306ead22e146100465780633a169f2a1461014f578063e581f9ee14610283575b600080fd5b6100636004803603602081101561005c57600080fd5b503561029d565b604051808060200180602001858152602001848152602001838103835287818151815260200191508051906020019080838360005b838110156100b0578181015183820152602001610098565b50505050905090810190601f1680156100dd5780820380516001836020036101000a031916815260200191505b50838103825286518152865160209182019188019080838360005b838110156101105781810151838201526020016100f8565b50505050905090810190601f16801561013d5780820380516001836020036101000a031916815260200191505b50965050505050505060405180910390f35b6102816004803603608081101561016557600080fd5b81019060208101813564010000000081111561018057600080fd5b82018360208201111561019257600080fd5b803590602001918460018302840111640100000000831117156101b457600080fd5b91908080601f016020809104026020016040519081016040528093929190818152602001838380828437600092019190915250929594936020810193503591505064010000000081111561020757600080fd5b82018360208201111561021957600080fd5b8035906020019184600183028401116401000000008311171561023b57600080fd5b91908080601f01602080910402602001604051908101604052809392919081815260200183838082843760009201919091525092955050823593505050602001356103e3565b005b61028b610465565b60408051918252519081900360200190f35b60016020818152600092835260409283902080548451600294821615610100026000190190911693909304601f810183900483028401830190945283835292839183018282801561032f5780601f106103045761010080835404028352916020019161032f565b820191906000526020600020905b81548152906001019060200180831161031257829003601f168201915b505050505090806001018054600181600116156101000203166002900480601f0160208091040260200160405190810160405280929190818152602001828054600181600116156101000203166002900480156103cd5780601f106103a2576101008083540402835291602001916103cd565b820191906000526020600020905b8154815290600101906020018083116103b057829003601f168201915b5050505050908060020154908060030154905084565b60008054600190810180835560408051608081018252888152602080820189905281830188905260608201879052928552928252909220815180519293919261042f928492019061046b565b506020828101518051610448926001850192019061046b565b506040820151600282015560609091015160039091015550505050565b60005481565b828054600181600116156101000203166002900490600052602060002090601f016020900481019282601f106104ac57805160ff19168380011785556104d9565b828001600101855582156104d9579182015b828111156104d95782518255916020019190600101906104be565b506104e59291506104e9565b5090565b61050391905b808211156104e557600081556001016104ef565b9056fea265627a7a72315820a2a351d9c0c83b9fdce517ecb5280a24f58c43c3404c84fd1e9be32f50a8f96164736f6c63430005100032",
  "source": "pragma solidity >0.5.0;\r\n\r\ncontract InfoStudent {\r\n    uint public studentCount = 0;\r\n\r\n    struct Student {\r\n        string rollno;\r\n        string name;\r\n        uint age;\r\n        uint cgpa;\r\n    }\r\n    mapping(uint => Student) public students;\r\n\r\n    constructor() public {\r\n    createStudent(\"18BIT0131\",\"KSHITIJ DHYANI\",21,9);\r\n    createStudent(\"18BCI0216\",\"RISHABH SINGH\",22,8);\r\n    createStudent(\"17BCE0001\",\"KIRAN SOOD\",23,6);\r\n    createStudent(\"18BIT0231\",\"RAM SINGH\",19,10);\r\n    }\r\n\r\n    function createStudent(string memory _rollno,string memory _name,uint _age,uint _cgpa) public {\r\n        studentCount ++;\r\n        students[studentCount] = Student(_rollno,_name,_age,_cgpa);\r\n    }\r\n\r\n}",
  "sourcePath": "D:/MY PROJECTS/BLOCK CHAIN/Practive_Solidity/contracts/InfoStudent.sol",
  "compiler": {
    "name": "solc",
    "version": "0.5.16+commit.9c3226ce.Emscripten.clang"
  },
  "schemaVersion": "3.2.3",
  "updatedAt": "2021-03-19T15:02:30.730Z",
  "networkType": "ethereum",
  "devdoc": {
    "methods": {}
  },
  "userdoc": {
    "methods": {}
  }
}