{
  "contractName": "TodoList",
  "abi": [
    {
      "constant": true,
      "inputs": [],
      "name": "taskCount",
      "outputs": [
        {
          "internalType": "uint256",
          "name": "",
          "type": "uint256"
        }
      ],
      "payable": false,
      "stateMutability": "view",
      "type": "function"
    }
  ],
  "bytecode": "0x608060405260008055348015601357600080fd5b506080806100226000396000f3fe6080604052348015600f57600080fd5b506004361060285760003560e01c8063b6cb58a514602d575b600080fd5b60336045565b60408051918252519081900360200190f35b6000548156fea265627a7a723158207e6b6b81fb228e0326f75a73a394dced45cf5468678e456c5d9bc5fa6f9411e564736f6c63430005100032",
  "source": "pragma solidity >=0.4.20;\r\n\r\ncontract TodoList {\r\n    // ALL THE CODE GOES HERE\r\n    uint public taskCount = 0; //STATE VARIABLES, are WRITTEN TO THE BLOCKCHAIN\r\n    // STATE CHANGES EVERYTIME STATE VARIABLE CHANGES\r\n\r\n\r\n}",
  "sourcePath": "D:/MY PROJECTS/BLOCK CHAIN/Practive_Solidity/contracts/TodoList.sol",
  "compiler": {
    "name": "solc",
    "version": "0.5.16+commit.9c3226ce.Emscripten.clang"
  },
  "schemaVersion": "3.2.3",
  "updatedAt": "2021-03-19T08:30:10.293Z",
  "devdoc": {
    "methods": {}
  },
  "userdoc": {
    "methods": {}
  }
}